:020000040800F2
:10000000000700208901000847120008FD100008C1
:10001000451200088F0200082D160008000000009D
:10002000000000000000000000000000671200084F
:100030009102000800000000651200086912000823
:10004000A3010008A3010008A3010008A301000800
:10005000A3010008A3010008A3010008A3010008F0
:10006000A3010008A3010008A3010008A3010008E0
:10007000A3010008A3010008A3010008A3010008D0
:10008000A3010008A3010008A3010008A3010008C0
:10009000A3010008A3010008A3010008A3010008B0
:1000A000A3010008A3010008A3010008A3010008A0
:1000B000A3010008A3010008A3010008A301000890
:1000C000A3010008A3010008A3010008A301000880
:1000D000A3010008A301000821160008A3010008DD
:1000E000A3010008A3010008A301000800F002F822
:1000F00000F03AF80AA090E8000C82448344AAF188
:100100000107DA4501D100F02FF8AFF2090EBAE885
:100110000F0013F0010F18BFFB1A43F0010318473B
:1001200098150000B8150000103A24BF78C878C1AF
:10013000FAD8520724BF30C830C144BF04680C60ED
:10014000704700000023002400250026103A28BF35
:1001500078C1FBD8520728BF30C148BF0B60704739
:100160001FB51FBD10B510BD00F058F81146FFF7C0
:10017000F7FF01F06FFA00F076F803B4FFF7F2FF33
:1001800003BC00F07DF8000009488047094800479B
:10019000FEE7FEE7FEE7FEE7FEE7FEE7FEE7FEE737
:1001A000FEE7FEE704480549054A064B7047000094
:1001B000D3120008ED000008000100200007002015
:1001C00000030020000300204FF0000200B513469A
:1001D00094469646203922BFA0E80C50A0E80C5067
:1001E000B1F12001BFF4F7AF090728BFA0E80C5018
:1001F00048BF0CC05DF804EB890028BF40F8042B11
:1002000008BF704748BF20F8022B11F0804F18BF7D
:1002100000F8012B7047704770477047754600F033
:100220002BF8AE4605006946534620F00700854688
:1002300018B020B5FFF7B6FFBDE820404FF000062C
:100240004FF000074FF000084FF0000BAC46ACE851
:10025000C009ACE8C009ACE8C009ACE8C00921F0AD
:1002600007018D46704710B50446AFF30080204665
:10027000BDE81040FFF781BF004870471000002024
:1002800001491820ABBEFEE7260002007047FEE7DA
:100290007047EFF3108072B6FEE790F82110022944
:1002A00012D1016801230A6822F00E020A600A686E
:1002B00022F001020A60D0E90F1203FA02F24A604A
:1002C000002180F8213002E0042181630121002215
:1002D00080F820200846704790F8211002291BD191
:1002E00002681F4B11689A4221F00E0111601168DB
:1002F00021F001011160194912D01A4B9A4211D014
:10030000194B9A4210D0194B9A4210D0184B9A426E
:1003100010D14FF4803315E0042181630120704730
:1003200001230FE010230DE04FF480730AE04FF437
:10033000805307E001F1680C4FF08073624508BFFD
:100340004FF480130B604FF480710184416B19B13D
:1003500080B58847002080BD00207047040002401F
:10036000080002401C0002403000024044000240ED
:10037000580002402DE9FC4F594A04234FF0000B6E
:100380004FF001084FF00F0E4FF00009002590428A
:1003900008BF032300930A6832FA05F308BFBDE8DB
:1003A000FC8F08FA05F73A4200F096804A68032A63
:1003B00016D9112A24D0122A26D04C4B9A4213D097
:1003C0004B4B9A4210D04B4B9A420DD04A4B9A421B
:1003D0000AD04A4B9A4207D0494B9A4204D020E0B7
:1003E000DFE802F00216191D8A6832B1012A4FF0C7
:1003F000080914BF4761076113E04FF0040910E0DA
:10040000CA6802F104090CE0CA6802F10C0908E0AC
:10041000D1F80C9005E0CA6802F1080901E04FF03C
:100420000009082D5A46044628BF203A28BF043444
:1004300026680EFA02F309FA02F226EA03031A43C7
:100440002260CA79D20647D5604A0BF00C0C1346DD
:10045000126842F001021A601A680EFA0CF302F0F8
:10046000010201921F4A019CAC08A2F57E7656F863
:10047000242022EA030A234A904208D0224A9042CA
:1004800007D0224A009B904208BF022302E00023CB
:1004900000E0012303FA0CF242EA0A0246F82420A3
:1004A000104E4A68D303336854BFBB433B433360A9
:1004B0009303736854BFBB433B437360D302B36879
:1004C00054BFBB433B439202074AB36013461268D2
:1004D00054BFBA433A431A600BF1040B01355AE793
:1004E00000140140000401400C0401400000111000
:1004F0000000121000002110000022100000311036
:100500000000321000080140000C014000100140C2
:10051000002A08BF0904016170470000054800680F
:10052000704700BF1A48034900780A681044086001
:10053000704700BFFC00002080B59048016841F082
:1005400010010160032000F071F80F2000F004F8A2
:1005500000F020F8002080BD70B50D4E04464FF429
:100560007A713078B1FBF0F091490968B1FBF0F095
:1005700000F0E0FA01250F2C08D838B94FF0FF3011
:1005800021460022002500F033F87460284670BD33
:100590000000002082B00D480222016841F00101F4
:1005A0000160016801F0010101910199416841F088
:1005B00080514160406800F08050009000980448ED
:1005C000016862F31A61016002B0704718100240BE
:1005D00004000140002808DB00F01F01012240094F
:1005E00002FA01F1014A42F82010704700E100E0F0
:1005F00080B5144B1B68C3F3022CBCF1030E8CF0C6
:1006000007034FF0FF3C38BF4FF0000E042B28BF0C
:1006100004230CFA03F399430CFA0EF301FA0EF1DA
:100620009A431143BDE8804001F002B805494FF6F6
:10063000FF030A681A4060F30A2203481043086067
:10064000704700BF0CED00E00000FA052DE9F8430B
:10065000002800F08E80884648490446086800F06B
:10066000070040450AD2086820F0070040EA080069
:100670000860086800F0070040457AD120685C4BAC
:100680008946810711D5410742BF196841F4E061ED
:100690001960010742BF196841F460511960196877
:1006A000A26821F0F00111431960C0072AD06068E8
:1006B000012804D153F8041C890309D459E053F8E4
:1006C000041C022802D1890102D452E0890750D5C6
:1006D00019681D4621F0030108431860FFF71EFF4B
:1006E000064641F28837286861682B4600F00C0006
:1006F000B0EB810F06D0FFF711FF801BB842F2D993
:10070000032037E0D9F8000000F0070040450DD97C
:10071000D9F8000020F0070040EA0800C9F80000FE
:10072000D9F8000000F00700404522D120684107B9
:1007300005D51968E26821F4E061114319600007EA
:1007400006D51868216920F4605040EAC10018609D
:100750001C4600F031F82168094AC1F30311515CCD
:10076000C840F249086007480068FFF7F5FE00201E
:1007700000E0012001B0BDE8F08300BF002002408E
:10078000A016000804000020E8481949094A00683A
:100790000968C1F30221515CC8407047E34814491D
:1007A000044A00680968C1F3C221515CC84070471F
:1007B00008000020B016000810B50D4C0D48226846
:1007C00002F00C03082B18BF10BDC2F383430AA12B
:1007D000CB5CD10302D40D48584310BD21680AA256
:1007E0005843C1F34041515CB0FBF1F010BD00BF74
:1007F0000410024000127A000203040506070809EB
:100800000A0B0C0D0E0F10100102000000093D0034
:100810002DE9FC41002800F0408104460078C14EDB
:10082000C0074AD0706800F00C00042817D0706828
:1008300000F00C00082802D17068C0030FD4606873
:1008400098B1B0F5803F06D03168B0F5A02F21D126
:1008500041F480203060306840F4803020E030681F
:1008600080032AD5606840BB17E1306820F48030EF
:100870003060306820F480203060FFF74FFE05467E
:100880003068800319D5FFF749FE411B0320642916
:10089000F6D903E121F480303060306820F4802004
:1008A0003060FFF73BFE05463068800305D4FFF754
:1008B00035FE401B6428F7D9D1E0207880072BD57E
:1008C000706810F00C0F07D0706800F00C0008285A
:1008D00009D17068C00306D43068800715D5206937
:1008E000012812D0D9E021698F4800297CD001214C
:1008F0000160FFF713FE05463068800705D4FFF757
:100900000DFE401B0228F7D9A9E03068616920F08C
:10091000F80040EAC1003060207800072ED5A069B9
:1009200078B181480121C0F88014FFF7F7FD054632
:10093000706A800715D4FFF7F1FD401B0228F7D934
:100940008DE079480021C0F88014FFF7E7FD0546E7
:10095000706A800712D5FFF7E1FD401B0228F7D926
:100960007DE072484FF4FA510068B0FBF1F001905D
:1009700000BF0198411E00280191F9D1207840075D
:1009800076D5F069C0000BD4F0694FF0010840F053
:100990008050F061F06900F080500090009801E014
:1009A0004FF00008624F3868C0050FD4386840F433
:1009B00080703860FFF7B2FD05463868C00505D481
:1009C000FFF7ACFD401B6428F7D948E0E068D8B1D8
:1009D000012805D0316A05282DD141F0040030628C
:1009E000306A40F001002CE000210160FFF796FD25
:1009F0000546306880077FF58FAFFFF78FFD411BFD
:100A000003200229F5D949E0306A20F00100306264
:100A1000306A20F004003062FFF780FD054641F2A5
:100A20008837306A80071CD5FFF778FD411B03200B
:100A3000B942F6D932E021F001003062306A20F08C
:100A400004003062FFF76AFD054641F28837306ADC
:100A5000800706D4FFF762FD401BB842F7D9032098
:100A60001CE0B8F1000F1EBFF06920F08050F0616B
:100A7000E769002F53D0706800F00C00082810D1EF
:100A8000012F0AD07068216A00F480328A4204D1B2
:100A9000616A00F47010884241D0012002B0BDE8C4
:100AA000F0812149002088460866FFF737FD05469A
:100AB000022F0AD147463068800110D5FFF72EFD7E
:100AC000411B03200229F6D9E8E73068800126D5CA
:100AD000FFF724FD411B03200229F6D9DEE7206A37
:100AE000B0F5803F05D17168A26821F4003111434F
:100AF00071607168626A104321F474110843706078
:100B000001203866FFF70AFD04463068800106D4EC
:100B1000FFF704FD011B03200229F6D9BEE70020E0
:100B2000BCE700BF00100240000042420800002065
:100B300000700040411E0020B0EB116F1CBF01206F
:100B40007047044AF023516003490B7007219060FD
:100B50001160704710E000E023ED00E090F83C20C9
:100B6000012A01D102211FE0B0B501F10805D1E948
:100B700000CE3CCDC96923F47C5322F470521A4351
:100B80002EF4F0431A432CF4E0431A4324F4C043F8
:100B90001A432A4322F4804211430268516400211F
:100BA00080F83C10BDE8B0400846704790F83C30F3
:100BB0000222012B28D080B580F83D20012280F848
:100BC0003C2002685368D2F808C0B2F1804F23F08D
:100BD000700E0B6843EA0E035360BDE8804008D0F6
:100BE000884B9A4205D0854B9A4202D0844B9A4258
:100BF00004D149682CF0800319439160002201213F
:100C000080F83C2080F83D1010467047FEB5014644
:100C10000020CDE90400CDE902000D48096800F587
:100C20001052914212D150490A6842F004020A60FF
:100C30004FF44072096801F0040101910199022109
:100C400003910292059102A9FFF794FB06B080BDC3
:100C500000080140B0B5044690F83C00012804BFEC
:100C60000220B0BD012084F83C004FEAB200032806
:100C700037D80D46DFE800F0020A12222068294624
:100C800000F064FB206850F8181F0EE02068294629
:100C900000F088FB206850F8181F16E020682946ED
:100CA00000F0B0FB206850F81C1F41F00801016003
:100CB000016821F00401016029690FE020682946DC
:100CC00000F0D0FB206850F81C1F41F40061016067
:100CD000016821F4806101602969090202681143F9
:100CE0000160002084F83C00B0BD40B310B504465C
:100CF00090F83D0028B9002084F83C00204600F020
:100D000021F80220211D84F83D00206800F0E2FA5D
:100D1000012084F8460084F83E0084F83F0084F8FF
:100D2000400084F8410084F8420084F8430084F8CD
:100D3000440084F8450084F83D00002010BD0120E7
:100D40007047000000682D49884218BF704781B085
:100D5000E848016841F400610160006800F4006047
:100D60000090009801B070471810024010B504467A
:100D700041B1082909D0042914BF04F1410004F14C
:100D80003F0004E004F13E0001E004F1400000787F
:100D900001281CBF012010BD022041B1082909D043
:100DA000042914BF84F8410084F83F0004E084F86B
:100DB0003E0001E084F840002068012200F0B6FA0D
:100DC00020680E49884209D0B0F1804F0AD00C4902
:100DD000884207D00B49884204D008E04A6C42F4AC
:100DE00000424A64816801F00701062903D00168C6
:100DF00041F001010160002010BD00BF002C014046
:100E00000008004000040040704770477CB501684E
:100E100006460A680846CB6850F8144F5FEA027C21
:100E200058D003F4907504F001042D195BD0D1075C
:100E30001FBF13F48071316C41F00101316451071F
:100E400004D51CB1316C41F002013164910704D525
:100E50001CB1316C41F004013164BCF1000F07D5C5
:100E600003F0200109191EBF316C41F00801316403
:100E7000316C002900F0C68003EA0201890604D51E
:100E8000304600F031FB306814300068316C00F0FF
:100E9000400001F00801401800F0A280304600F048
:100EA0000DFB30684169490640F19580416921F0A8
:100EB00040014161B06B002800F08D8056494163CC
:100EC000FFF70AFA002800F09D80B06B416BBDE887
:100ED0007C40084703EA0200820606D53046BDE89A
:100EE0007C4000F001BB03EA0200326BC30625D54B
:100EF000012A23D1002001900868019048680190E0
:100F000001984869400629D4F08DB28DF38D002BED
:100F100078D0101A020475D0CA6822F49072CA60A0
:100F20004A6922F001024A61202286F83E2000220E
:100F30003263CA6822F01002CA6036E002063AD470
:100F400040065FD5C86820F04000C860202086F8C1
:100F50003D003046BDE87C4000F0CFB8B06B026881
:100F600053689CB2002C4DD0B28D94424AD2F38586
:100F70008369202B17D0CA6822F48072CA604A693C
:100F800022F001024A614A6922F040024A612022AD
:100F900086F83E2000223263CA6822F01002CA603E
:100FA000FFF77BF9B28DF08D101A81B23046BDE8A3
:100FB0007C40FFF729BF96F83D00212822D1B06878
:100FC000B0F5805F01D1306980B1306A421C326275
:100FD0000078486011E03046BDE87C40FFF715BF5F
:100FE0003046FFF712FF002030647CBD306A30F8D5
:100FF000022B6FF35F224A603062F08C0138F0847C
:10100000000400D07CBDC86820F08000C860C868BB
:1010100040F04000C8607CBDB114000850B310B56A
:10102000044690F83D0028B9002084F83C00204692
:1010300000F022F8242084F83D002068C16821F4E3
:101040000051C160204600F0A9FA2068016921F42E
:1010500090410161416921F02A014161C16841F477
:101060000051C16000202021206484F83D1084F8E4
:101070003E1010BD0120704770B586B00026364C7A
:10108000CDE90466CDE902660068A4F544418842D2
:101090002DD1304802AD416841F4003141604168D2
:1010A00001F4003101910199016841F004010160EE
:1010B0002946006800F00400019001980220039086
:1010C00004200290032005902046FFF753F90820E2
:1010D00003962946029020460496FFF74BF92620F6
:1010E00000210022FFF784FA2620FFF773FA06B0EA
:1010F00070BD00BF1810024070477047FEE7000047
:101100007FB51448144C00224FF440650026016856
:1011100041F020010160016801F020010091009977
:10112000016841F0040101604FF44061006800F083
:101130000400009000982046FFF7EAF90120694674
:10114000CDE900500220029603902046FFF712F9E5
:101150007FBD00BF1810024000080140B0B592B03A
:1011600009AC00251C212046CDE91055FFF72CF8CD
:1011700001A82021FFF728F83948CC4A40F2CF21B6
:1011800040F2CF73C0E90021C0E90253C0E9045521
:101190008561FFF7AAFD08B1FFF77BF8304810A979
:1011A000CDE91055FFF702FD08B1FFF772F8602096
:1011B00018210990201DFFF707F829482146002231
:1011C000FFF748FD08B1FFF764F8254809A9042294
:1011D000FFF740FD08B1FFF75CF801AC1421204691
:1011E000FEF7F2FF0020214608904FF400500690D1
:1011F0001B48FFF7B3FC08B1FFF74BF81848FFF79F
:1012000005FD12B0B0BD00BF80B50C480C4A4FF4CC
:10121000E13100234FF00C0CC0E90021C0E902339A
:10122000C0E9043CC0E90633FFF7F8FE002814BF0C
:10123000BDE8804080BDFFF72CB800BFB80000209B
:1012400000440040FEE7FEE710B5054C00212046B3
:10125000FFF78CFD20460421BDE81040FFF786BD56
:101260007000002070477047FFF75CB9B0B590B0D0
:10127000002401A81421CDE90B44CDE90944FEF76F
:10128000A3FF4FF4803001210225079006910894B6
:101290000A91CDE90D504FF4E0100F9006A8FFF72A
:1012A000B7FA18B1EFF3108072B6FEE70F200221F3
:1012B00001904FF480600394CDE9040401A80295E5
:1012C000FFF7C4F918B1EFF3108072B6FEE710B063
:1012D000B0BD7047B0B50368744DB0F1804F07D012
:1012E000104CA04204D0A84202D00F4CA04207D11B
:1012F0004C6823F45C73CA6824F44074234313439A
:101300004A6923F08003A84242EA030202608A6825
:10131000C2620A68826204BF0969296301214161CE
:10132000B0BD00BF000400400008004001F01F01F4
:10133000012303FA01FC036A02FA01F123EA0C0318
:101340000362026A114301627047000070B5026ACD
:1013500022F001020262026AD0F804E0D0F818C05C
:101360008C680B6822F0020222432CF0730444EADA
:10137000030C4E4B98420CD1CE68D1E905452EF4B2
:10138000407322F00C02234343EA050E26F00403C7
:101390001A43C0F804E0C0F818C04968416302620B
:1013A00070BD00BF70B5026A22F010020262026ACC
:1013B000D0F804E0D0F818C08C680B6822F0200246
:1013C00042EA04122CF4E64444EA032C374B9842D8
:1013D0000FD1CE68D1E905452EF4406322F0C0025A
:1013E00043EA840343EA850E6FF0400303EA0613E1
:1013F0001A43C0F804E0C0F818C04968816302626B
:1014000070BD00BF70B5026A22F480720262026A87
:10141000D0F804E0D0F81CC08C680B6822F400728D
:1014200042EA04222CF0730444EA030C1F4B984256
:101430000FD1CE68D1E905452EF4405322F4406225
:1014400043EA041340F2FF4443EA051E3302A34378
:101450001A43C0F804E0C0F81CC04968C1630262C6
:1014600070BD00BFB0B5026A22F480520262026A07
:10147000D0F804E0C5698B680C6822F4005242EA97
:10148000033C0A4B25F4E64242EA0422984204D186
:101490004B692EF4804545EA831EC0F804E0C26122
:1014A00049680164C0F820C0B0BD00BF002C0140F5
:1014B000406A0021C185C184FFF7A7BC0168CA68E2
:1014C00022F49072CA604A6922F001024A61026BFA
:1014D000012A02BFCA6822F01002CA60202180F8E7
:1014E0003E1000210163704790F83E10222918BF7A
:1014F00070478368B3F5805F05D10169B1B100F130
:1015000028010A680BE00146002B51F8282F01D171
:10151000036923B103685B6803F07F0301E003689C
:101520005B6813700A6801320A6007E00168826A2A
:1015300049686FF35F2122F8021B8262C18D013975
:10154000C185090400D070470168CA6822F02002F2
:10155000CA60CA6822F48072CA604A6922F0010235
:101560004A61202280F83E20026B012A18BFFFF753
:10157000C3BD00220263CB6823F01003CB600B686D
:10158000DB0607D581B000920A6800924968009195
:10159000009901B0818DFFF737BC000010B50446FB
:1015A00000680169E26821F44051114341F20C6284
:1015B0000161D4F808C0D4E904E3C16891434EEA5C
:1015C0000C021A431143C1604169A26921F44071C0
:1015D000114341611149884202D0FFF7D5F801E07B
:1015E000FFF7DCF819214843D4E900126FF06304D7
:1015F0009200B0FBF2F06422B0FBF2F303FB0400B4
:10160000322404EB0010B0FBF2F000F0F00200F026
:101610000F0002EB03121044886010BD0038014037
:101620000148FFF7F3BB00BFB8000020FEE7000051
:1016300010B5074C00F00F03044AB0F1FF3F2344FC
:10164000C8BF83180801187010BD00BF00E400E097
:1016500014ED00E0FEF770FFFFF708FEFFF750FD06
:10166000FFF77CFDFFF7D0FDFFF7EEFD0A4C0B4DB9
:101670004FF47A7620464FF480610122FEF748FF4E
:1016800020464FF400610022FEF742FF28684663BF
:1016900046638663EEE700BF00080140700000204B
:1016A0000000000000000000010203040607080912
:1016B0000000000001020304D8160008000000200A
:1016C0001000000028010008E816000810000020A3
:1016D000F0060000440100080100000010000000B6
:0816E0000024F40000000000EA
:04000005080000ED02
:00000001FF
